:020000040800F2
:1000000000280020C11000085110000857100008F7
:100010005D1000086310000869100008000000006F
:100020000000000000000000000000006F10000849
:100030007B100008000000008710000893100008E3
:100040000911000809110008091100080911000828
:100050000911000809110008091100080911000818
:100060000911000809110008091100080911000808
:1000700009110008091100080911000809110008F8
:1000800009110008091100080911000809110008E8
:1000900009110008091100080911000809110008D8
:1000A00009110008091100080911000809110008C8
:1000B000A110000809110008000000000911000843
:1000C00009110008000000000000000009110008EC
:1000D00000000000091100080911000800000000DC
:1000E00009110008091100080911000800000000AA
:1000F0000000000000000000000000000000000000
:0C01000000000000000000005FF808F1A3
:10010C0010B5054C237833B9044B13B10448AFF345
:10011C0000800123237010BD480100200000000066
:10012C001027000808B5034B1BB103490348AFF374
:10013C00008008BD000000004C01002010270008C2
:10014C0080B582B000AF786035497A681346DB0021
:10015C009B1A9B000B441B68DBB21A4601213148E9
:10016C0001F0D1FA2E497A681346DB009B1A9B00EA
:10017C000B4404331B68DBB21A460221294801F0F8
:10018C00C2FA27497A681346DB009B1A9B000B4482
:10019C0008331B68DBB21A460421224801F0B3FA7B
:1001AC001F497A681346DB009B1A9B000B440C33E7
:1001BC001B68DBB21A4608211A4801F0A4FA184948
:1001CC007A681346DB009B1A9B000B4410331B68A8
:1001DC00DBB21A461021134801F095FA10497A68DF
:1001EC001346DB009B1A9B000B4414331B68DBB2D9
:1001FC001A4620210B4801F086FA09497A68134601
:10020C00DB009B1A9B000B4418331B68DBB21A46AD
:10021C004021044801F077FA00BF0837BD4680BD85
:10022C0000000020000C014080B483B000AF786067
:10023C0039607B68184A82FB03129210DB17D31AC1
:10024C00164A13607968144B83FB01239A10CB1761
:10025C00D21A13469B0013445B00CA1A0F4B5A6008
:10026C003B680D4A82FB03129210DB17D31A0B4A20
:10027C0093603968084B83FB01239A10CB17D21A71
:10028C0013469B0013445B00CA1A044BDA6000BF90
:10029C000C37BD4680BC70476766666664010020FB
:1002AC0080B582B000AF78607B68013B032B7FD8B0
:1002BC0001A252F823F000BFD50200080F0300087A
:1002CC004903000883030008002208213B4801F081
:1002DC001AFA01221021394801F015FA01222021C5
:1002EC00364801F010FA01224021344801F00BFA93
:1002FC007B68013B324A52F823301846FFF720FF47
:10030C0057E0012208212D4801F0FDF900221021AF
:10031C002A4801F0F8F901222021284801F0F3F9CC
:10032C0001224021254801F0EEF97B68013B244A6B
:10033C0052F823301846FFF703FF3AE00122082158
:10034C001E4801F0E0F9012210211C4801F0DBF9F4
:10035C0000222021194801F0D6F90122402117482A
:10036C0001F0D1F97B68013B154A52F8233018464D
:10037C00FFF7E6FE1DE001220821104801F0C3F949
:10038C00012210210D4801F0BEF9012220210B4859
:10039C0001F0B9F900224021084801F0B4F97B685A
:1003AC00013B074A52F823301846FFF7C9FE00E01C
:1003BC0000BF00BF0837BD4680BD00BF000801402C
:1003CC006401002080B500AF694B1B681846FFF72D
:1003DC0067FF012000F0D0FD0346002B0FD0644BCB
:1003EC001B680133624A1360614B1B68042B02DDEE
:1003FC005F4B01221A60FA21012000F06DFD5D4B6C
:10040C001B680B3B032B00F2A78001A252F823F0D0
:10041C002D0400084B04000807050008A904000877
:10042C00002000F0A9FD0346002B00F0978000F09F
:10043C0047FB4FF47A71002000F04EFD8EE04D4BDF
:10044C001B684D4A126811461846FFF7EDFE022054
:10045C0000F092FD0346002B00F08280474B1B6896
:10046C00DBB21A468021464801F04DF9434B1B681C
:10047C00DBB21A464FF48071414801F044F93F4B0E
:10048C001B68002B0CBF01230023DBB21A463B4B2D
:10049C001A60FA21022000F01FFD61E0354B1B6849
:1004AC00384A126811461846FFF7BEFE022000F0CB
:1004BC0063FD0346002B55D0304B1B68DBB21A464C
:1004CC004FF400612E4801F01EF92C4B1B68DBB277
:1004DC001A464FF480512A4801F015F9274B1B6836
:1004EC00002B0CBF01230023DBB21A46234B1A60EE
:1004FC00FA21022000F0F0FC34E01E4B1B68224A6B
:10050C00126811461846FFF78FFE022000F034FDEA
:10051C000346002B28D0194B1B68DBB21A464FF44C
:10052C000071174801F0EFF8144B1B68DBB21A4648
:10053C004FF48061124801F0E6F8104B1B68002B59
:10054C000CBF01230023DBB21A460C4B1A60FA21B4
:10055C00022000F0C1FC07E000BF06E000BF04E091
:10056C0000BF02E000BF00E000BF00BF80BD00BFC5
:10057C00180100202001002024010020740100201B
:10058C00000801402C0100202801002080B582B019
:10059C0000AF00237B60774B1B680B3B032B00F2F7
:1005AC00E48001A252F823F0C505000809060008F2
:1005BC008D060008F5060008002000F031F903460E
:1005CC00002B14D000F0E2F86B4B1B686B4A1360E5
:1005DC00684B0C221A60FA21022000F07DFC654B5E
:1005EC001B68664A126811461846FFF71DFE01206B
:1005FC0000F016F9022000F013F9B7E0002000F02B
:10060C000FF90346002B08D000F0C0F85C4B1B68B8
:10061C005A4A1360574B0D221A60012000F000F962
:10062C000346002B0BD0554B1B680133534A136008
:10063C00524B1B68632B02DD504B00221A600220C8
:10064C0000F0EEF80346002B11D000237B604B4BDF
:10065C001A68494B1B68D31A7B60484B1B68464A87
:10066C001360484B1A687B681344464A1360414B2D
:10067C001B68424A126811461846FFF7D5FD75E013
:10068C00002000F0CDF80346002B08D000F07EF8D7
:10069C003C4B1B68394A1360364B0E221A60012002
:1006AC0000F0BEF80346002B0BD0344B1B68013313
:1006BC00324A1360314B1B68632B02DD2F4B002237
:1006CC001A60022000F0ACF80346002B03D02B4B31
:1006DC001B682B4A1360274B1B68284A126811466B
:1006EC001846FFF7A1FD41E0002000F099F8034601
:1006FC00002B07D000F04AF8234B00221A601D4B48
:10070C000B221A60012000F08BF80346002B0BD053
:10071C001A4B1B680133194A1360184B1B68632B67
:10072C0002DD164B00221A60022000F079F8034615
:10073C00002B11D000237B60104B1A68114B1B68E7
:10074C00D31A7B600D4B1B680E4A13600A4B1A6858
:10075C007B681344084A1360064B1B68074A1268EF
:10076C0011461846FFF760FD00E000BF00BF0837D8
:10077C00BD4680BD20010020240100207C0100200A
:10078C00280100202C0100207801002080B500AF4A
:10079C0000224FF4FC51024800F0B5FF00BF80BDB1
:1007AC000008014080B483B000AF0023FB712CE043
:1007BC00FB791A4A5B0113440D3300221A70FB7942
:1007CC00164A5B0113440C3300221A70FB79134A4E
:1007DC005B0113441C3300221A60FB790F4A5B0146
:1007EC001344183300221A60FB790C4A5B01134442
:1007FC00143300221A60FB79084A5B01134410334E
:10080C0000221A60FB790133FB71FB79092BCFD9DC
:10081C0000BF00BF0C37BD4680BC70478001002074
:10082C0080B483B000AF78607B68092B01DD0023B6
:10083C0011E00B4A7B685B0113440C331B78012BD2
:10084C0008D1074A7B685B0113440C3300221A70F1
:10085C00012300E0002318460C37BD4680BC7047CE
:10086C008001002080B483B000AF7860054A7B68BB
:10087C005B0113440C3301221A7000BF0C37BD46C8
:10088C0080BC70478001002080B485B000AFF86058
:10089C00B9607A60FB68092B14DC0D4AFB685B01BC
:1008AC001344BA681A600A4AFB685B0113440433A8
:1008BC007A681A60064AFB685B0113440D33012207
:1008CC001A7000E000BF1437BD4680BC704700BFF3
:1008DC008001002080B582B000AF0023FB719BE04B
:1008EC00FB79524A5B0113440D331B78002B00F04B
:1008FC008F80FA79FB794D4952010A4414321268FF
:10090C004A495B010B4418331A60FA79FB79474961
:10091C0052010A441032126844495B010B441433EF
:10092C001A60FB79414A5B0113441A68FB793F4911
:10093C005B010B4404331B689BB21946104600F054
:10094C00CBFE0346002B0CBF01230023DAB2FB794C
:10095C001146364A5B01134410331960FB79334A54
:10096C005B01134410331A68FB7930495B010B446B
:10097C0014331B681A43FB792C495B010B44183365
:10098C001B681343002B0CD1FA79FB7927495201D0
:10099C000A441832126825495B010B441C331A6057
:1009AC0037E0FB79214A5B0113441C331B68002B95
:1009BC0012D1FB791D4A5B0113441C3301221A60CE
:1009CC00FB791A4A5B011344083364221A60FB79E1
:1009DC001846FFF747FF1CE0FB7914495A010A44FB
:1009EC0008321268013A11495B010B4408331A6052
:1009FC00FB790E4A5B01134408331B68002B08D1AA
:100A0C00FB790A4A5B011344083364221A6000E044
:100A1C0000BFFB790133FB71FB79092B7FF660AFCB
:100A2C0000BF00BF0837BD4680BD00BF800100205D
:100A3C0080B500AF01228021054800F064FE012240
:100A4C004FF48051024800F05EFE00BF80BD00BF35
:100A5C000008014080B500AF01228021054800F05C
:100A6C0052FE01224FF48061024800F04CFE00BFA0
:100A7C0080BD00BF0008014080B500AF01224FF4DB
:100A8C000071054800F03FFE01224FF480710248CE
:100A9C0000F039FE00BF80BD0008014080B500AFFA
:100AAC0001224FF40061054800F02DFE01224FF4A5
:100ABC008071024800F027FE00BF80BD0008014095
:100ACC0080B500AFFFF762FE5A4B1B68042B00F297
:100ADC00A38001A252F823F0F90A00086B0B00085E
:100AEC001B0B0008ED0B0008A30B000800210020D5
:100AFC00FFF79AFB504B1B68504A1360504B1B6816
:100B0C00504A1360504B1B68504A13608BE04B4BA0
:100B1C001B684C4A126811461846FFF785FB494B77
:100B2C001B68013B474A1360444B1B68013B434A1B
:100B3C001360444B1B68002B0ED13F4B1B683F4A84
:100B4C0013603F4B1B683F4A13603F4B1B683F4A87
:100B5C0013603F4B03221A60FFF77CFF63E0374BB7
:100B6C001B683A4A126811461846FFF75DFBFFF7FF
:100B7C005FFF324B1B68013B304A1360334B1B68E1
:100B8C00013B324A1360314B1B68002B46D1304B72
:100B9C0002221A6042E02B4B1B68284A126811464D
:100BAC001846FFF741FBFFF767FF264B1B68013B1D
:100BBC00244A1360214B1B68013B204A1360214BD4
:100BCC001B68002B2CD11D4B05221A601F4B0322D6
:100BDC001A601C4B02221A601D4B01221A601FE086
:100BEC001A4B1B68154A126811461846FFF71CFB76
:100BFC00FFF754FF114B1B68013B104A1360134B5A
:100C0C001B68013B114A1360104B1B68002B09D168
:100C1C000F4B04221A6005E000BF04E000BF02E0A5
:100C2C0000BF00E000BF0A4B1B68024A136000BF04
:100C3C0080BD00BF7801002024010020300100207D
:100C4C0028010020340100202C0100203801002054
:100C5C001C01002080B582B000AF786000F05CF918
:100C6C00FFF738FE00BF0837BD4680BD80B500AF2A
:100C7C0000F046FA00F032F800F0B8F800F06AF82C
:100C8C004FF47A71002000F027F9FA21012000F0CE
:100C9C0023F9FFF787FD4FF400520E490020FFF7B0
:100CAC00F3FD4FF480420B490120FFF7EDFD4FF4AB
:100CBC00004208490220FFF7E7FD074801F06AF9F6
:100CCC00FFF764FDFFF7FCFEFFF77CFBFFF75EFC14
:100CDC00FAE700BF00100140C002002080B590B0C0
:100CEC0000AF07F1180328220021184601F0DEFCA2
:100CFC003B1D00221A605A609A60DA601A61022366
:100D0C00BB610123BB621023FB6200237B6307F1F1
:100D1C001803184600F010FD0346002B01D000F01C
:100D2C00D5F80F237B600023BB600023FB600023FE
:100D3C003B6100237B613B1D0021184600F07EFFC8
:100D4C000346002B01D000F0C1F800BF4037BD4670
:100D5C0080BD000080B586B000AF07F1080300220B
:100D6C001A605A609A60DA603B4600221A605A6038
:100D7C001D4B4FF080421A601B4B41F63F725A607C
:100D8C00194B00229A60184B0922DA60164B00228C
:100D9C001A61154B00229A61134801F0ABF8034617
:100DAC00002B01D000F092F84FF48053BB6007F198
:100DBC00080319460C4801F029FA0346002B01D010
:100DCC0000F084F800233B6000237B603B4619460F
:100DDC00054801F001FC0346002B01D000F076F829
:100DEC0000BF1837BD4680BDC002002080B588B05A
:100DFC0000AF07F1100300221A605A609A60DA60A3
:100E0C002E4B9B692D4A43F0100393612B4B9B692E
:100E1C0003F01003FB60FB68284B9B69274A43F0E7
:100E2C0004039361254B9B6903F00403BB60BB680F
:100E3C00224B9B69214A43F0080393611F4B9B692A
:100E4C0003F008037B607B68002241F6F8711C48B4
:100E5C0000F059FC00227F211A4800F054FC4FF49A
:100E6C0060433B6100237B610123BB6107F11003ED
:100E7C001946154800F0B4FA41F6F8733B610123AA
:100E8C007B610023BB610223FB6107F11003194650
:100E9C000B4800F0A5FA7F233B6101237B61002303
:100EAC00BB610223FB6107F110031946054800F0F2
:100EBC0097FA00BF2037BD4680BD00BF001002402E
:100ECC0000080140000C01400010014080B400AF4C
:100EDC0072B600BFFEE7000080B483B000AF78604C
:100EEC0039603B68094A82FB03129210DB17D21A55
:100EFC0007497B6841F82320064A7B68002142F8A9
:100F0C00231000BF0C37BD4680BC70476766666611
:100F1C00080300203003002080B483B000AF00230E
:100F2C007B601BE0124A7B6852F823305A1E104932
:100F3C007B6841F823200E4A7B6852F82330002B43
:100F4C0009DC0C4A7B68012142F82310084A7B68B3
:100F5C00002142F823107B6801337B607B68092BEE
:100F6C00E0DD00BF00BF0C37BD4680BC704700BF42
:100F7C00080300203003002080B483B000AF7860F9
:100F8C00044A7B6852F8233018460C37BD4680BCA7
:100F9C00704700BF3003002080B485B000AF154B04
:100FAC009B69144A43F001039361124B9B6903F054
:100FBC000103BB60BB680F4BDB690E4A43F08053E7
:100FCC00D3610C4BDB6903F080537B607B680A4B6D
:100FDC005B68FB60FB6823F0E063FB60FB6843F03D
:100FEC008063FB60044AFB68536000BF1437BD4646
:100FFC0080BC7047001002400000014080B584B0F6
:10100C0000AF78607B681B68B3F1804F13D10C4B39
:10101C00DB690B4A43F00103D361094BDB6903F035
:10102C000103FB60FB68002200211C2000F0A1F9E9
:10103C001C2000F0BAF900BF1037BD4680BD00BFC0
:10104C000010024080B400AFFEE780B400AFFEE7B2
:10105C0080B400AFFEE780B400AFFEE780B400AF11
:10106C00FEE780B400AF00BFBD4680BC704780B4C3
:10107C0000AF00BFBD4680BC704780B400AF00BF5E
:10108C00BD4680BC704780B500AF00F07FF800BF54
:10109C0080BD000080B500AF024800F0C7FF00BF64
:1010AC0080BD00BFC002002080B400AF00BFBD46B1
:1010BC0080BC7047FFF7F8FF0B480C490C4A002323
:1010CC0002E0D458C4500433C4188C42F9D3094AF2
:1010DC00094C002301E013600432A242FBD301F05F
:1010EC00EDFAFFF7C3FD7047000000204801002017
:1010FC0054270008480100205C030020FEE7000094
:10110C0080B500AF084B1B68074A43F0100313600F
:10111C00032000F023F90F2000F008F8FFF73CFF44
:10112C000023184680BD00BF0020024080B582B06D
:10113C0000AF7860124B1A68124B1B7819464FF4AB
:10114C007A73B3FBF1F3B2FBF3F3184600F03BF9FF
:10115C000346002B01D001230EE07B680F2B0AD82D
:10116C00002279684FF0FF3000F003F9064A7B68E3
:10117C001360002300E0012318460837BD4680BDEC
:10118C003C010020440100204001002080B400AF4D
:10119C00054B1B781A46054B1B681344034A136016
:1011AC0000BFBD4680BC704744010020580300209E
:1011BC0080B400AF024B1B681846BD4680BC70471C
:1011CC005803002080B485B000AF78607B6803F0D2
:1011DC000703FB600C4BDB68BB60BA684FF6FF0380
:1011EC001340BB60FB681A02BB68134343F0BF6338
:1011FC0043F40033BB60044ABB68D36000BF1437B0
:10120C00BD4680BC704700BF00ED00E080B400AF6D
:10121C00044BDB681B0A03F007031846BD4680BC71
:10122C00704700BF00ED00E080B483B000AF034610
:10123C00FB7197F90730002B0BDBFB7903F01F02D6
:10124C00064997F907305B09012000FA02F241F8D0
:10125C00232000BF0C37BD4680BC704700E100E086
:10126C0080B483B000AF03463960FB7197F9073047
:10127C00002B0ADB3B68DAB20C4997F907301201F4
:10128C00D2B20B4483F800230AE03B68DAB2084977
:10129C00FB7903F00F03043B1201D2B20B441A7614
:1012AC0000BF0C37BD4680BC704700BF00E100E0BA
:1012BC0000ED00E080B489B000AFF860B9607A60EE
:1012CC00FB6803F00703FB61FB69C3F10703042B05
:1012DC0028BF0423BB61FB690433062B02D9FB69CD
:1012EC00033B00E000237B614FF0FF32BB6902FA45
:1012FC0003F3DA43BB681A407B699A404FF0FF3125
:10130C007B6901FA03F3D9437B680B4013431846FE
:10131C002437BD4680BC704780B582B000AF786082
:10132C007B68013BB3F1807F01D301230FE00A4AB4
:10133C007B68013B53600F214FF0FF30FFF790FFAC
:10134C00054B00229A60044B07221A6000231846B2
:10135C000837BD4680BD00BF10E000E080B582B00C
:10136C0000AF78607868FFF72DFF00BF0837BD46E7
:10137C0080BD80B586B000AF0346B9607A60FB7360
:10138C0000237B61FFF742FF78617A68B96878695E
:10139C00FFF790FF024697F90F3011461846FFF7FA
:1013AC005FFF00BF1837BD4680BD80B582B000AF6F
:1013BC000346FB7197F907301846FFF735FF00BF5E
:1013CC000837BD4680BD80B582B000AF78607868C4
:1013DC00FFF7A2FF034618460837BD4680BD000044
:1013EC0080B48BB000AF7860396000237B6200233F
:1013FC003B6261E101227B6A02FA03F3FB613B6809
:10140C001B68FA691340BB61BA69FB699A4240F0E8
:10141C0050813B685B68974A93425ED0954A9342F1
:10142C0075D8954A934258D0934A93426FD8934AB1
:10143C00934252D0914A934269D8914A93424CD0EC
:10144C008F4A934263D88F4A934246D08D4A934237
:10145C005DD8122B2AD8122B59D801A252F823F09E
:10146C00E7140008C1140008D3140008151500086F
:10147C001B1500081B1500081B1500081B15000880
:10148C001B1500081B1500081B1500081B15000870
:10149C001B1500081B1500081B1500081B15000860
:1014AC001B150008C9140008DD140008764A934285
:1014BC0013D02CE03B68DB683B6229E03B68DB68BF
:1014CC0004333B6224E03B68DB6808333B621FE07B
:1014DC003B68DB680C333B621AE03B689B68002B73
:1014EC0002D104233B6213E03B689B68012B05D1BE
:1014FC0008233B627B68FA691A6109E008233B62A6
:10150C007B68FA695A6103E000233B6200E000BF8C
:10151C00BB69FF2B01D87B6801E07B6804337B61DE
:10152C00BB69FF2B02D87B6A9B0002E07B6A083BFD
:10153C009B003B617B691A680F213B6901FA03F33D
:10154C00DB431A40396A3B6901FA03F31A437B699E
:10155C001A603B685B6803F08053002B00F0A98095
:10156C004A4B9B69494A43F001039361474B9B6982
:10157C0003F00103BB60BB68454A7B6A9B080233DE
:10158C0052F82330FB607B6A03F003039B000F22AD
:10159C0002FA03F3DB43FA681340FB607B683D4AB5
:1015AC0093420DD07B683C4A934207D07B683B4A00
:1015BC00934201D1022304E0032302E0012300E063
:1015CC0000237A6A02F0030292009340FA681343F4
:1015DC00FB602F497B6A9B080233FA6841F8232091
:1015EC003B685B6803F48013002B06D02C4B9A6885
:1015FC002B49BB6913438B6006E0294B9A68BB6986
:10160C00DB43274913408B603B685B6803F4001392
:10161C00002B06D0224BDA682149BB691343CB60FF
:10162C0006E01F4BDA68BB69DB431D491340CB60F6
:10163C003B685B6803F40033002B06D0184B5A68E8
:10164C001749BB6913434B6006E0154B5A68BB69DD
:10165C00DB43134913404B603B685B6803F48033F6
:10166C00002B1FD00E4B1A680D49BB6913430B603E
:10167C001FE000BF000032100000311000002210EB
:10168C000000211000001210000011100010024088
:10169C000000014000080140000C01400010014016
:1016AC00000401400B4B1A68BB69DB43094913402A
:1016BC000B607B6A01337B623B681A687B6A22FA97
:1016CC0003F3002B7FF496AE00BF00BF2C37BD4652
:1016DC0080BC70470004014080B485B000AF7860D6
:1016EC000B467B807B689A687B881340002B02D06A
:1016FC000123FB7301E00023FB73FB7B18461437BB
:10170C00BD4680BC704780B483B000AF78600B4698
:10171C007B8013467B707B78002B03D07A887B68A8
:10172C001A6103E07B881A047B681A6100BF0C37CE
:10173C00BD4680BC7047000080B586B000AF7860B5
:10174C007B68002B01D1012372E27B681B6803F0DC
:10175C000103002B00F08780924B5B6803F00C03B5
:10176C00042B0CD08F4B5B6803F00C03082B12D1AD
:10177C008C4B5B6803F48033B3F5803F0BD1894B02
:10178C001B6803F40033002B6CD07B685B68002B68
:10179C0068D101234CE27B685B68B3F5803F06D1CE
:1017AC00804B1B687F4A43F4803313602EE07B68C8
:1017BC005B68002B0CD17B4B1B687A4A23F480337B
:1017CC001360784B1B68774A23F4802313601DE069
:1017DC007B685B68B3F5A02F0CD1724B1B68714A08
:1017EC0043F4802313606F4B1B686E4A43F48033C1
:1017FC0013600BE06B4B1B686A4A23F48033136055
:10180C00684B1B68674A23F4802313607B685B6812
:10181C00002B13D0FFF7CCFC386108E0FFF7C8FCB5
:10182C0002463B69D31A642B01D9032300E25D4BBA
:10183C001B6803F40033002BF0D014E0FFF7B8FC66
:10184C00386108E0FFF7B4FC02463B69D31A642BFD
:10185C0001D90323ECE1534B1B6803F40033002B39
:10186C00F0D100E000BF7B681B6803F00203002B83
:10187C0063D04C4B5B6803F00C03002B0BD0494B33
:10188C005B6803F00C03082B1CD1464B5B6803F41C
:10189C008033002B16D1434B1B6803F00203002B43
:1018AC0005D07B681B69012B01D00123C0E13D4BA6
:1018BC001B6823F0F8027B685B69DB003949134332
:1018CC000B603AE07B681B69002B20D0364B012261
:1018DC001A60FFF76DFC386108E0FFF769FC0246FF
:1018EC003B69D31A022B01D90323A1E12D4B1B68B1
:1018FC0003F00203002BF0D02A4B1B6823F0F802F4
:10190C007B685B69DB00274913430B6015E0264BB2
:10191C0000221A60FFF74CFC386108E0FFF748FC26
:10192C0002463B69D31A022B01D9032380E11D4BDC
:10193C001B6803F00203002BF0D17B681B6803F0DB
:10194C000803002B3AD07B689B69002B19D0174BEE
:10195C0001221A60FFF72CFC386108E0FFF728FC25
:10196C0002463B69D31A022B01D9032360E10D4BCC
:10197C005B6A03F00203002BF0D0012000F09CFA0C
:10198C001CE00A4B00221A60FFF712FC38610FE0D2
:10199C00FFF70EFC02463B69D31A022B08D903232E
:1019AC0046E100BF00100240000042428004424267
:1019BC00924B5B6A03F00203002BE9D17B681B6836
:1019CC0003F00403002B00F0A6800023FB758B4B67
:1019DC00DB6903F08053002B0DD1884BDB69874A00
:1019EC0043F08053D361854BDB6903F08053BB60BC
:1019FC00BB680123FB75824B1B6803F48073002BBF
:101A0C0018D17F4B1B687E4A43F480731360FFF739
:101A1C00CFFB386108E0FFF7CBFB02463B69D31ADA
:101A2C00642B01D9032303E1754B1B6803F480730A
:101A3C00002BF0D07B68DB68012B06D16F4B1B6A47
:101A4C006E4A43F0010313622DE07B68DB68002BC8
:101A5C000CD16A4B1B6A694A23F001031362674B72
:101A6C001B6A664A23F0040313621CE07B68DB6884
:101A7C00052B0CD1614B1B6A604A43F004031362C3
:101A8C005E4B1B6A5D4A43F0010313620BE05B4B38
:101A9C001B6A5A4A23F001031362584B1B6A574ABC
:101AAC0023F0040313627B68DB68002B15D0FFF76F
:101ABC007FFB38610AE0FFF77BFB02463B69D31AD8
:101ACC0041F28832934201D90323B1E04B4B1B6A9C
:101ADC0003F00203002BEED014E0FFF769FB386132
:101AEC000AE0FFF765FB02463B69D31A41F28832E4
:101AFC00934201D903239BE0404B1B6A03F0020382
:101B0C00002BEED1FB7D012B05D13C4BDB693B4A15
:101B1C0023F08053D3617B68DB69002B00F0878056
:101B2C00364B5B6803F00C03082B61D07B68DB69D8
:101B3C00022B46D1334B00221A60FFF739FB386178
:101B4C0008E0FFF735FB02463B69D31A022B01D99B
:101B5C0003236DE0294B1B6803F00073002BF0D1BD
:101B6C007B681B6AB3F5803F08D1244B5B6823F478
:101B7C0000327B689B68214913434B601F4B5B68A9
:101B8C0023F474127B68196A7B685B6A0B431B49EC
:101B9C0013434B601B4B01221A60FFF709FB3861A2
:101BAC0008E0FFF705FB02463B69D31A022B01D96B
:101BBC0003233DE0114B1B6803F00073002BF0D0A6
:101BCC0035E0104B00221A60FFF7F2FA386108E09A
:101BDC00FFF7EEFA02463B69D31A022B01D9032315
:101BEC0026E0064B1B6803F00073002BF0D11EE0BF
:101BFC007B68DB69012B07D1012319E0001002403F
:101C0C0000700040600042420B4B5B68FB60FB685D
:101C1C0003F480327B681B6A9A4206D1FB6803F49A
:101C2C0070127B685B6A9A4201D0012300E00023AA
:101C3C0018461837BD4680BD0010024080B584B0F0
:101C4C0000AF786039607B68002B01D10123D0E0B4
:101C5C006A4B1B6803F007033A689A4210D9674B2A
:101C6C001B6823F0070265493B6813430B60634B09
:101C7C001B6803F007033A689A4201D00123B8E0CD
:101C8C007B681B6803F00203002B20D07B681B6869
:101C9C0003F00403002B05D0594B5B68584A43F4FE
:101CAC00E06353607B681B6803F00803002B05D0CE
:101CBC00534B5B68524A43F460535360504B5B6820
:101CCC0023F0F0027B689B684D4913434B607B68A3
:101CDC001B6803F00103002B40D07B685B68012B71
:101CEC0007D1474B1B6803F40033002B15D101239C
:101CFC007FE07B685B68022B07D1414B1B6803F0CC
:101D0C000073002B09D1012373E03D4B1B6803F0DA
:101D1C000203002B01D101236BE0394B5B6823F0EC
:101D2C0003027B685B68364913434B60FFF740FA4C
:101D3C00F8600AE0FFF73CFA0246FB68D31A41F25E
:101D4C008832934201D9032353E02D4B5B6803F097
:101D5C000C027B685B689B009A42EBD1274B1B689B
:101D6C0003F007033A689A4210D2244B1B6823F005
:101D7C00070222493B6813430B60204B1B6803F09E
:101D8C0007033A689A4201D0012332E07B681B6852
:101D9C0003F00403002B08D0194B5B6823F4E062BA
:101DAC007B68DB68164913434B607B681B6803F048
:101DBC000803002B09D0124B5B6823F460527B683C
:101DCC001B69DB000E4913434B6000F021F80246FF
:101DDC000B4B5B681B0903F00F030A49CB5C22FA1F
:101DEC0003F3094A1360094B1B681846FFF79EF969
:101DFC00002318461037BD4680BD00BF00200240AE
:101E0C0000100240282700083C010020400100205F
:101E1C0080B487B000AF0023FB600023BB600023BD
:101E2C007B6100237B6000233B611E4B5B68FB6086
:101E3C00FB6803F00C03042B02D0082B03D027E023
:101E4C00194B3B6127E0FB689B0C03F00F03174A0F
:101E5C00D35C7B60FB6803F48033002B10D0114BF8
:101E6C005B685B0C03F00103114AD35CBB607B68BD
:101E7C000D4A03FB02F2BB68B2FBF3F37B6104E097
:101E8C007B680C4A02FB03F37B617B693B6102E0DC
:101E9C00054B3B6100BF3B6918461C37BD4680BCF7
:101EAC00704700BF0010024000127A00382700086B
:101EBC004827000800093D0080B485B000AF786069
:101ECC000A4B1B680A4AA2FB03235B0A7A6802FBD3
:101EDC0003F3FB6000BFFB685A1EFA60002BF9D1BC
:101EEC0000BF00BF1437BD4680BC70473C010020CA
:101EFC00D34D621080B582B000AF78607B68002B48
:101F0C0001D1012341E07B6893F83D30DBB2002B1B
:101F1C0006D17B68002283F83C207868FFF76EF8C6
:101F2C007B68022283F83D207B681A687B68043347
:101F3C001946104600F056FA7B68012283F84620B9
:101F4C007B68012283F83E207B68012283F83F20C6
:101F5C007B68012283F840207B68012283F84120B2
:101F6C007B68012283F842207B68012283F843209E
:101F7C007B68012283F844207B68012283F845208A
:101F8C007B68012283F83D20002318460837BD46A4
:101F9C0080BD000080B485B000AF78607B6893F89A
:101FAC003D30DBB2012B01D0012335E07B680222EE
:101FBC0083F83D207B681B68DA687B681B6842F0FD
:101FCC000102DA607B681B68164A934209D07B6871
:101FDC001B68B3F1804F04D07B681B68124A934294
:101FEC0011D17B681B689B6803F00703FB60FB68DF
:101FFC00062B10D07B681B681A687B681B6842F044
:10200C0001021A6007E07B681B681A687B681B6812
:10201C0042F001021A60002318461437BD4680BCFA
:10202C00704700BF002C01400004004080B584B014
:10203C0000AF78607B681B68DB68FB607B681B68A3
:10204C001B69BB60BB6803F00203002B20D0FB684C
:10205C0003F00203002B1BD07B681B686FF002029D
:10206C001A617B6801221A777B681B689B6903F0F5
:10207C000303002B03D0786800F098F905E078682A
:10208C0000F08BF9786800F09AF97B6800221A77D7
:10209C00BB6803F00403002B20D0FB6803F004039F
:1020AC00002B1BD07B681B686FF004021A617B68E5
:1020BC0002221A777B681B689B6903F44073002B20
:1020CC0003D0786800F072F905E0786800F065F9E3
:1020DC00786800F074F97B6800221A77BB6803F00B
:1020EC000803002B20D0FB6803F00803002B1BD047
:1020FC007B681B686FF008021A617B6804221A77F0
:10210C007B681B68DB6903F00303002B03D0786842
:10211C0000F04CF905E0786800F03FF9786800F0C1
:10212C004EF97B6800221A77BB6803F01003002B72
:10213C0020D0FB6803F01003002B1BD07B681B68BE
:10214C006FF010021A617B6808221A777B681B6893
:10215C00DB6903F44073002B03D0786800F026F998
:10216C0005E0786800F019F9786800F028F97B68C8
:10217C0000221A77BB6803F00103002B0CD0FB681C
:10218C0003F00103002B07D07B681B686FF0010282
:10219C001A617868FEF75EFDBB6803F08003002BC4
:1021AC000CD0FB6803F08003002B07D07B681B6806
:1021BC006FF080021A61786800F06FFABB6803F068
:1021CC004003002B0CD0FB6803F04003002B07D01E
:1021DC007B681B686FF040021A61786800F0F8F8B1
:1021EC00BB6803F02003002B0CD0FB6803F020032A
:1021FC00002B07D07B681B686FF020021A6178688F
:10220C0000F042FA00BF1037BD4680BD80B584B0E7
:10221C0000AF786039600023FB737B6893F83C3027
:10222C00012B01D10223B4E07B68012283F83C200E
:10223C007B68022283F83D207B681B689B68BB602F
:10224C00BB6823F07703BB60BB6823F47F43BB60A0
:10225C007B681B68BA689A603B681B68B3F5005FC3
:10226C003ED0B3F5005F00F28780B3F5805F00F0DD
:10227C008680B3F5805F7FD8702B1AD0702B7BD8FB
:10228C00602B50D0602B77D8502B3CD0502B73D870
:10229C00402B58D0402B6FD8302B64D0302B6BD8C0
:1022AC00202B60D0202B67D8002B5CD0102B5AD061
:1022BC0062E07B6818683B6899683B685A683B68C1
:1022CC00DB6800F06AF97B681B689B68BB60BB68C5
:1022DC0043F07703BB607B681B68BA689A604FE079
:1022EC007B6818683B6899683B685A683B68DB6890
:1022FC0000F053F97B681B689A687B681B6842F492
:10230C0080429A603CE07B6818683B6859683B687F
:10231C00DB681A4600F0CAF87B681B685021184627
:10232C0000F021F92CE07B6818683B6859683B6821
:10233C00DB681A4600F0E8F87B681B6860211846D9
:10234C0000F011F91CE07B6818683B6859683B6821
:10235C00DB681A4600F0AAF87B681B684021184617
:10236C0000F001F90CE07B681A683B681B681946A1
:10237C00104600F0F8F803E00123FB7300E000BF07
:10238C007B68012283F83D207B68002283F83C2087
:10239C00FB7B18461037BD4680BD80B483B000AFC0
:1023AC00786000BF0C37BD4680BC704780B483B0EA
:1023BC0000AF786000BF0C37BD4680BC704780B45E
:1023CC0083B000AF786000BF0C37BD4680BC70474F
:1023DC0080B483B000AF786000BF0C37BD4680BCC2
:1023EC007047000080B485B000AF786039607B68BE
:1023FC001B68FB607B682B4A934207D07B68B3F168
:10240C00804F03D07B68284A934208D1FB6823F0A5
:10241C007003FB603B685B68FA681343FB607B6886
:10242C00204A934207D07B68B3F1804F03D07B687E
:10243C001D4A934208D1FB6823F44073FB603B6850
:10244C00DB68FA681343FB60FB6823F080023B688F
:10245C005B691343FB607B68FA681A603B689A6897
:10246C007B68DA623B681A687B689A627B680D4A03
:10247C00934203D13B681A697B681A637B6801221B
:10248C005A617B681B6903F00103002B05D07B6844
:10249C001B6923F001027B681A6100BF1437BD462B
:1024AC0080BC7047002C01400004004080B487B011
:1024BC0000AFF860B9607A60FB681B6A7B61FB68EF
:1024CC001B6A23F00102FB681A62FB689B693B6183
:1024DC003B6923F0F0033B617B681B013A691343B2
:1024EC003B617B6923F00A037B617A69BB68134308
:1024FC007B61FB683A699A61FB687A691A6200BF72
:10250C001C37BD4680BC704780B487B000AFF86004
:10251C00B9607A60FB681B6A7B61FB681B6A23F0FD
:10252C001002FB681A62FB689B693B613B6923F4F0
:10253C0070433B617B681B033A6913433B617B69C6
:10254C0023F0A0037B61BB681B017A6913437B6199
:10255C00FB683A699A61FB687A691A6200BF1C379A
:10256C00BD4680BC704780B485B000AF78603960E0
:10257C007B689B68FB60FB6823F07003FB603A6828
:10258C00FB68134343F00703FB607B68FA689A60AF
:10259C0000BF1437BD4680BC704780B487B000AF15
:1025AC00F860B9607A603B60FB689B687B617B6913
:1025BC0023F47F437B613B681A027B681A43BB6838
:1025CC0013437A6913437B61FB687A699A6000BF95
:1025DC001C37BD4680BC704780B485B000AF7860B6
:1025EC0039607B6893F83C30012B01D1022341E028
:1025FC007B68012283F83C207B68022283F83D2013
:10260C007B681B685B68FB607B681B689B68BB60B6
:10261C00FB6823F07003FB603B681B68FA6813438C
:10262C00FB607B681B68FA685A607B681B68144AFD
:10263C00934209D07B681B68B3F1804F04D07B6850
:10264C001B68104A93420CD1BB6823F08003BB601B
:10265C003B685B68BA681343BB607B681B68BA68ED
:10266C009A607B68012283F83D207B68002283F806
:10267C003C20002318461437BD4680BC704700BF71
:10268C00002C01400004004080B483B000AF78609F
:10269C0000BF0C37BD4680BC704780B483B000AF20
:1026AC00786000BF0C37BD4680BC704703460244BF
:1026BC00934200D1704703F8011BF9E770B500266F
:1026CC000C4D0D4C641BA410A64209D100F01AF855
:1026DC0000260A4D0A4C641BA410A64205D170BDFD
:1026EC0055F8043B98470136EEE755F8043B9847FC
:1026FC000136F2E74C2700084C2700084C2700084D
:10270C0050270008F8B500BFF8BC08BC9E467047BF
:0C271C00F8B500BFF8BC08BC9E46704732
:102728000000000000000000010203040607080979
:1027380002030405060708090A0B0C0D0E0F1010FA
:04274800010200008A
:04274C00310100084F
:042750000D0100086F
:102754000000000000000000000000000000000075
:102764000000000000000000010000000100000063
:102774000000000000000000010000000100000053
:102784000100000001000000000000000000000043
:102794000100000000000000000000000100000033
:1027A4000000000000000000000000000000000025
:1027B4000000000001000000010000000000000013
:1027C4000100000000000000000000000100000003
:1027D40001000000000000000000000000000000F4
:1027E40001000000000000000000000001000000E3
:1027F40000000000000000000000000001000000D4
:1028040000000000000000000000000000000000C4
:1028140000000000000000000000000000000000B4
:1028240001000000010000000100000001000000A0
:102834000000000000000000000000000000000094
:102844000000000000000000000000000000000084
:102854000000000000000000000000000100000073
:102864000000000000000000010000000100000062
:102874000B0000000500000002000000030000003F
:1028840005000000020000000300000000127A00AE
:0828940010000000010000002B
:04000005080010C11E
:00000001FF
